{
  "_format": "hh-sol-artifact-1",
  "contractName": "TrustFund",
  "sourceName": "contracts/TrustFund.sol",
  "abi": [
    {
      "anonymous": false,
      "inputs": [
        {
          "indexed": true,
          "internalType": "address",
          "name": "depositor",
          "type": "address"
        },
        {
          "indexed": true,
          "internalType": "uint256",
          "name": "amount",
          "type": "uint256"
        },
        {
          "indexed": true,
          "internalType": "uint256",
          "name": "withdrawalDate",
          "type": "uint256"
        }
      ],
      "name": "FundsDeposited",
      "type": "event"
    },
    {
      "anonymous": false,
      "inputs": [
        {
          "indexed": true,
          "internalType": "address",
          "name": "beneficiary",
          "type": "address"
        },
        {
          "indexed": true,
          "internalType": "uint256",
          "name": "amount",
          "type": "uint256"
        }
      ],
      "name": "FundsWithdrawn",
      "type": "event"
    },
    {
      "inputs": [
        {
          "internalType": "address",
          "name": "",
          "type": "address"
        }
      ],
      "name": "beneficiaries",
      "outputs": [
        {
          "internalType": "address",
          "name": "beneficiaryAddress",
          "type": "address"
        },
        {
          "internalType": "uint256",
          "name": "withdrawalDate",
          "type": "uint256"
        },
        {
          "internalType": "uint256",
          "name": "amount",
          "type": "uint256"
        }
      ],
      "stateMutability": "view",
      "type": "function"
    },
    {
      "inputs": [
        {
          "internalType": "address",
          "name": "beneficiaryAddress",
          "type": "address"
        },
        {
          "internalType": "uint256",
          "name": "withdrawalDate",
          "type": "uint256"
        }
      ],
      "name": "depositFunds",
      "outputs": [],
      "stateMutability": "payable",
      "type": "function"
    },
    {
      "inputs": [],
      "name": "getFundsAmount",
      "outputs": [
        {
          "internalType": "uint256",
          "name": "",
          "type": "uint256"
        }
      ],
      "stateMutability": "view",
      "type": "function"
    },
    {
      "inputs": [],
      "name": "getFundsWithdrawalDate",
      "outputs": [
        {
          "internalType": "uint256",
          "name": "",
          "type": "uint256"
        }
      ],
      "stateMutability": "view",
      "type": "function"
    },
    {
      "inputs": [],
      "name": "getTimestamp",
      "outputs": [
        {
          "internalType": "uint256",
          "name": "",
          "type": "uint256"
        }
      ],
      "stateMutability": "view",
      "type": "function"
    },
    {
      "inputs": [],
      "name": "withdrawFunds",
      "outputs": [],
      "stateMutability": "nonpayable",
      "type": "function"
    }
  ],
  "bytecode": "0x608060405234801561001057600080fd5b50610c1a806100206000396000f3fe6080604052600436106100555760003560e01c8063015677391461005a5780630d22f34a14610099578063188ec356146100c457806324600fc3146100ef57806342a00e5114610106578063921b004b14610131575b600080fd5b34801561006657600080fd5b50610081600480360381019061007c919061073d565b61014d565b60405161009093929190610792565b60405180910390f35b3480156100a557600080fd5b506100ae610197565b6040516100bb91906107c9565b60405180910390f35b3480156100d057600080fd5b506100d96101e0565b6040516100e691906107c9565b60405180910390f35b3480156100fb57600080fd5b506101046101e8565b005b34801561011257600080fd5b5061011b6103e0565b60405161012891906107c9565b60405180910390f35b61014b60048036038101906101469190610810565b610429565b005b60006020528060005260406000206000915090508060000160009054906101000a900473ffffffffffffffffffffffffffffffffffffffff16908060010154908060020154905083565b60008060003373ffffffffffffffffffffffffffffffffffffffff1673ffffffffffffffffffffffffffffffffffffffff16815260200190815260200160002060010154905090565b600042905090565b60008060003373ffffffffffffffffffffffffffffffffffffffff1673ffffffffffffffffffffffffffffffffffffffff16815260200190815260200160002090506000816002015403610271576040517f08c379a0000000000000000000000000000000000000000000000000000000008152600401610268906108d3565b60405180910390fd5b80600101544210156102b8576040517f08c379a00000000000000000000000000000000000000000000000000000000081526004016102af90610965565b60405180910390fd5b8060000160009054906101000a900473ffffffffffffffffffffffffffffffffffffffff1673ffffffffffffffffffffffffffffffffffffffff163373ffffffffffffffffffffffffffffffffffffffff161461034a576040517f08c379a0000000000000000000000000000000000000000000000000000000008152600401610341906109f7565b60405180910390fd5b3373ffffffffffffffffffffffffffffffffffffffff166108fc82600201549081150290604051600060405180830381858888f19350505050158015610394573d6000803e3d6000fd5b5080600201543373ffffffffffffffffffffffffffffffffffffffff167feaff4b37086828766ad3268786972c0cd24259d4c87a80f9d3963a3c3d999b0d60405160405180910390a350565b60008060003373ffffffffffffffffffffffffffffffffffffffff1673ffffffffffffffffffffffffffffffffffffffff16815260200190815260200160002060020154905090565b600073ffffffffffffffffffffffffffffffffffffffff168273ffffffffffffffffffffffffffffffffffffffff1603610498576040517f08c379a000000000000000000000000000000000000000000000000000000000815260040161048f90610a63565b60405180910390fd5b4281116104da576040517f08c379a00000000000000000000000000000000000000000000000000000000081526004016104d190610af5565b60405180910390fd5b6000341161051d576040517f08c379a000000000000000000000000000000000000000000000000000000000815260040161051490610b61565b60405180910390fd5b60008060008473ffffffffffffffffffffffffffffffffffffffff1673ffffffffffffffffffffffffffffffffffffffff16815260200190815260200160002060020154036106385760405180606001604052808373ffffffffffffffffffffffffffffffffffffffff168152602001828152602001348152506000808473ffffffffffffffffffffffffffffffffffffffff1673ffffffffffffffffffffffffffffffffffffffff16815260200190815260200160002060008201518160000160006101000a81548173ffffffffffffffffffffffffffffffffffffffff021916908373ffffffffffffffffffffffffffffffffffffffff1602179055506020820151816001015560408201518160020155905050610691565b346000808473ffffffffffffffffffffffffffffffffffffffff1673ffffffffffffffffffffffffffffffffffffffff16815260200190815260200160002060020160008282546106899190610bb0565b925050819055505b80343373ffffffffffffffffffffffffffffffffffffffff167fbee4fe3675934fca827426c793623996a3079255089bda3a717019ffc5db276560405160405180910390a45050565b600080fd5b600073ffffffffffffffffffffffffffffffffffffffff82169050919050565b600061070a826106df565b9050919050565b61071a816106ff565b811461072557600080fd5b50565b60008135905061073781610711565b92915050565b600060208284031215610753576107526106da565b5b600061076184828501610728565b91505092915050565b610773816106ff565b82525050565b6000819050919050565b61078c81610779565b82525050565b60006060820190506107a7600083018661076a565b6107b46020830185610783565b6107c16040830184610783565b949350505050565b60006020820190506107de6000830184610783565b92915050565b6107ed81610779565b81146107f857600080fd5b50565b60008135905061080a816107e4565b92915050565b60008060408385031215610827576108266106da565b5b600061083585828601610728565b9250506020610846858286016107fb565b9150509250929050565b600082825260208201905092915050565b7f4e6f2066756e647320617661696c61626c6520666f722077697468647261776160008201527f6c00000000000000000000000000000000000000000000000000000000000000602082015250565b60006108bd602183610850565b91506108c882610861565b604082019050919050565b600060208201905081810360008301526108ec816108b0565b9050919050565b7f5769746864726177616c206461746520686173206e6f7420796574207061737360008201527f6564000000000000000000000000000000000000000000000000000000000000602082015250565b600061094f602283610850565b915061095a826108f3565b604082019050919050565b6000602082019050818103600083015261097e81610942565b9050919050565b7f4f6e6c79207468652062656e65666963696172792063616e207769746864726160008201527f772066756e647300000000000000000000000000000000000000000000000000602082015250565b60006109e1602783610850565b91506109ec82610985565b604082019050919050565b60006020820190508181036000830152610a10816109d4565b9050919050565b7f496e76616c69642062656e656669636961727920616464726573730000000000600082015250565b6000610a4d601b83610850565b9150610a5882610a17565b602082019050919050565b60006020820190508181036000830152610a7c81610a40565b9050919050565b7f5769746864726177616c2064617465206d75737420626520696e20746865206660008201527f7574757265000000000000000000000000000000000000000000000000000000602082015250565b6000610adf602583610850565b9150610aea82610a83565b604082019050919050565b60006020820190508181036000830152610b0e81610ad2565b9050919050565b7f416d6f756e74206d7573742062652067726561746572207468616e207a65726f600082015250565b6000610b4b602083610850565b9150610b5682610b15565b602082019050919050565b60006020820190508181036000830152610b7a81610b3e565b9050919050565b7f4e487b7100000000000000000000000000000000000000000000000000000000600052601160045260246000fd5b6000610bbb82610779565b9150610bc683610779565b9250828201905080821115610bde57610bdd610b81565b5b9291505056fea2646970667358221220e2725feca9e2178783305b2c6748e47e7642a61f1a411737ef0e84269419ce2764736f6c63430008180033",
  "linkReferences": {},
  "deployedLinkReferences": {}
}