{
  "_format": "hh-sol-artifact-1",
  "contractName": "TrustFund",
  "sourceName": "contracts/TrustFund.sol",
  "abi": [
    {
      "anonymous": false,
      "inputs": [
        {
          "indexed": false,
          "internalType": "uint256",
          "name": "depositId",
          "type": "uint256"
        },
        {
          "indexed": true,
          "internalType": "address",
          "name": "depositor",
          "type": "address"
        },
        {
          "indexed": true,
          "internalType": "address",
          "name": "beneficiary",
          "type": "address"
        },
        {
          "indexed": false,
          "internalType": "uint256",
          "name": "amount",
          "type": "uint256"
        },
        {
          "indexed": false,
          "internalType": "uint256",
          "name": "withdrawalDate",
          "type": "uint256"
        }
      ],
      "name": "FundsDeposited",
      "type": "event"
    },
    {
      "anonymous": false,
      "inputs": [
        {
          "indexed": false,
          "internalType": "uint256",
          "name": "depositId",
          "type": "uint256"
        },
        {
          "indexed": true,
          "internalType": "address",
          "name": "beneficiary",
          "type": "address"
        },
        {
          "indexed": false,
          "internalType": "uint256",
          "name": "amount",
          "type": "uint256"
        }
      ],
      "name": "FundsWithdrawn",
      "type": "event"
    },
    {
      "inputs": [],
      "name": "depositCounter",
      "outputs": [
        {
          "internalType": "uint256",
          "name": "",
          "type": "uint256"
        }
      ],
      "stateMutability": "view",
      "type": "function"
    },
    {
      "inputs": [
        {
          "internalType": "address",
          "name": "beneficiary",
          "type": "address"
        },
        {
          "internalType": "uint256",
          "name": "withdrawalDate",
          "type": "uint256"
        }
      ],
      "name": "depositFunds",
      "outputs": [],
      "stateMutability": "payable",
      "type": "function"
    },
    {
      "inputs": [
        {
          "internalType": "uint256",
          "name": "depositId",
          "type": "uint256"
        }
      ],
      "name": "getDepositDetails",
      "outputs": [
        {
          "components": [
            {
              "internalType": "uint256",
              "name": "depositId",
              "type": "uint256"
            },
            {
              "internalType": "address",
              "name": "depositor",
              "type": "address"
            },
            {
              "internalType": "address",
              "name": "beneficiary",
              "type": "address"
            },
            {
              "internalType": "uint256",
              "name": "amount",
              "type": "uint256"
            },
            {
              "internalType": "uint256",
              "name": "withdrawalDate",
              "type": "uint256"
            }
          ],
          "internalType": "struct TrustFund.Deposit",
          "name": "",
          "type": "tuple"
        }
      ],
      "stateMutability": "view",
      "type": "function"
    },
    {
      "inputs": [
        {
          "internalType": "address",
          "name": "addr",
          "type": "address"
        }
      ],
      "name": "getDepositsForAddress",
      "outputs": [
        {
          "internalType": "uint256[]",
          "name": "",
          "type": "uint256[]"
        }
      ],
      "stateMutability": "view",
      "type": "function"
    },
    {
      "inputs": [],
      "name": "getMyDeposits",
      "outputs": [
        {
          "components": [
            {
              "internalType": "uint256",
              "name": "depositId",
              "type": "uint256"
            },
            {
              "internalType": "address",
              "name": "depositor",
              "type": "address"
            },
            {
              "internalType": "address",
              "name": "beneficiary",
              "type": "address"
            },
            {
              "internalType": "uint256",
              "name": "amount",
              "type": "uint256"
            },
            {
              "internalType": "uint256",
              "name": "withdrawalDate",
              "type": "uint256"
            }
          ],
          "internalType": "struct TrustFund.Deposit[]",
          "name": "",
          "type": "tuple[]"
        }
      ],
      "stateMutability": "view",
      "type": "function"
    },
    {
      "inputs": [
        {
          "internalType": "uint256",
          "name": "depositId",
          "type": "uint256"
        }
      ],
      "name": "withdrawFunds",
      "outputs": [],
      "stateMutability": "nonpayable",
      "type": "function"
    }
  ],
  "bytecode": "0x608060405234801561001057600080fd5b5061161b806100206000396000f3fe6080604052600436106100555760003560e01c806302ab10d41461005a578063155dd5ee14610097578063890db72f146100c0578063921b004b146100fd578063b334400114610119578063ecb3dc8814610144575b600080fd5b34801561006657600080fd5b50610081600480360381019061007c9190610d22565b61016f565b60405161008e9190610e17565b60405180910390f35b3480156100a357600080fd5b506100be60048036038101906100b99190610e65565b610206565b005b3480156100cc57600080fd5b506100e760048036038101906100e29190610e65565b61049e565b6040516100f49190610f09565b60405180910390f35b61011760048036038101906101129190610f24565b610699565b005b34801561012557600080fd5b5061012e610a2f565b60405161013b919061107b565b60405180910390f35b34801561015057600080fd5b50610159610c5e565b60405161016691906110ac565b60405180910390f35b6060600260008373ffffffffffffffffffffffffffffffffffffffff1673ffffffffffffffffffffffffffffffffffffffff1681526020019081526020016000208054806020026020016040519081016040528092919081815260200182805480156101fa57602002820191906000526020600020905b8154815260200190600101908083116101e6575b50505050509050919050565b60006001600083815260200190815260200160002090506000816003015411610264576040517f08c379a000000000000000000000000000000000000000000000000000000000815260040161025b9061114a565b60405180910390fd5b8060020160009054906101000a900473ffffffffffffffffffffffffffffffffffffffff1673ffffffffffffffffffffffffffffffffffffffff163373ffffffffffffffffffffffffffffffffffffffff16148061031157508060010160009054906101000a900473ffffffffffffffffffffffffffffffffffffffff1673ffffffffffffffffffffffffffffffffffffffff163373ffffffffffffffffffffffffffffffffffffffff16145b610350576040517f08c379a000000000000000000000000000000000000000000000000000000000815260040161034790611202565b60405180910390fd5b8060010160009054906101000a900473ffffffffffffffffffffffffffffffffffffffff1673ffffffffffffffffffffffffffffffffffffffff163373ffffffffffffffffffffffffffffffffffffffff16146103ef5780600401544210156103ee576040517f08c379a00000000000000000000000000000000000000000000000000000000081526004016103e590611294565b60405180910390fd5b5b600081600301549050600082600301819055503373ffffffffffffffffffffffffffffffffffffffff166108fc829081150290604051600060405180830381858888f19350505050158015610448573d6000803e3d6000fd5b503373ffffffffffffffffffffffffffffffffffffffff167ff440aec6b52895984d061d622e6edeba6210f7c3e059be920663140c084560d784836040516104919291906112b4565b60405180910390a2505050565b6104a6610c64565b60006001600084815260200190815260200160002090508060020160009054906101000a900473ffffffffffffffffffffffffffffffffffffffff1673ffffffffffffffffffffffffffffffffffffffff163373ffffffffffffffffffffffffffffffffffffffff16148061056a57508060010160009054906101000a900473ffffffffffffffffffffffffffffffffffffffff1673ffffffffffffffffffffffffffffffffffffffff163373ffffffffffffffffffffffffffffffffffffffff16145b6105a9576040517f08c379a00000000000000000000000000000000000000000000000000000000081526004016105a09061134f565b60405180910390fd5b600160008481526020019081526020016000206040518060a0016040529081600082015481526020016001820160009054906101000a900473ffffffffffffffffffffffffffffffffffffffff1673ffffffffffffffffffffffffffffffffffffffff1673ffffffffffffffffffffffffffffffffffffffff1681526020016002820160009054906101000a900473ffffffffffffffffffffffffffffffffffffffff1673ffffffffffffffffffffffffffffffffffffffff1673ffffffffffffffffffffffffffffffffffffffff16815260200160038201548152602001600482015481525050915050919050565b600073ffffffffffffffffffffffffffffffffffffffff168273ffffffffffffffffffffffffffffffffffffffff1603610708576040517f08c379a00000000000000000000000000000000000000000000000000000000081526004016106ff906113bb565b60405180910390fd5b42811161074a576040517f08c379a00000000000000000000000000000000000000000000000000000000081526004016107419061144d565b60405180910390fd5b6000341161078d576040517f08c379a0000000000000000000000000000000000000000000000000000000008152600401610784906114b9565b60405180910390fd5b60008081548092919061079f90611508565b91905055506040518060a0016040528060005481526020013373ffffffffffffffffffffffffffffffffffffffff1681526020018373ffffffffffffffffffffffffffffffffffffffff1681526020013481526020018281525060016000805481526020019081526020016000206000820151816000015560208201518160010160006101000a81548173ffffffffffffffffffffffffffffffffffffffff021916908373ffffffffffffffffffffffffffffffffffffffff16021790555060408201518160020160006101000a81548173ffffffffffffffffffffffffffffffffffffffff021916908373ffffffffffffffffffffffffffffffffffffffff16021790555060608201518160030155608082015181600401559050503373ffffffffffffffffffffffffffffffffffffffff168273ffffffffffffffffffffffffffffffffffffffff161461095857600260008373ffffffffffffffffffffffffffffffffffffffff1673ffffffffffffffffffffffffffffffffffffffff16815260200190815260200160002060005490806001815401808255809150506001900390600052602060002001600090919091909150555b600260003373ffffffffffffffffffffffffffffffffffffffff1673ffffffffffffffffffffffffffffffffffffffff16815260200190815260200160002060005490806001815401808255809150506001900390600052602060002001600090919091909150558173ffffffffffffffffffffffffffffffffffffffff163373ffffffffffffffffffffffffffffffffffffffff167f3d423aae28e39cac21d8d8c5f4b0bb7d7476df8fcc4e53e433c750774ac0e46f6000543485604051610a2393929190611550565b60405180910390a35050565b60606000600260003373ffffffffffffffffffffffffffffffffffffffff1673ffffffffffffffffffffffffffffffffffffffff168152602001908152602001600020805480602002602001604051908101604052809291908181526020018280548015610abc57602002820191906000526020600020905b815481526020019060010190808311610aa8575b505050505090506000815167ffffffffffffffff811115610ae057610adf611587565b5b604051908082528060200260200182016040528015610b1957816020015b610b06610c64565b815260200190600190039081610afe5790505b50905060005b8251811015610c555760016000848381518110610b3f57610b3e6115b6565b5b602002602001015181526020019081526020016000206040518060a0016040529081600082015481526020016001820160009054906101000a900473ffffffffffffffffffffffffffffffffffffffff1673ffffffffffffffffffffffffffffffffffffffff1673ffffffffffffffffffffffffffffffffffffffff1681526020016002820160009054906101000a900473ffffffffffffffffffffffffffffffffffffffff1673ffffffffffffffffffffffffffffffffffffffff1673ffffffffffffffffffffffffffffffffffffffff16815260200160038201548152602001600482015481525050828281518110610c3d57610c3c6115b6565b5b60200260200101819052508080600101915050610b1f565b50809250505090565b60005481565b6040518060a0016040528060008152602001600073ffffffffffffffffffffffffffffffffffffffff168152602001600073ffffffffffffffffffffffffffffffffffffffff16815260200160008152602001600081525090565b600080fd5b600073ffffffffffffffffffffffffffffffffffffffff82169050919050565b6000610cef82610cc4565b9050919050565b610cff81610ce4565b8114610d0a57600080fd5b50565b600081359050610d1c81610cf6565b92915050565b600060208284031215610d3857610d37610cbf565b5b6000610d4684828501610d0d565b91505092915050565b600081519050919050565b600082825260208201905092915050565b6000819050602082019050919050565b6000819050919050565b610d8e81610d7b565b82525050565b6000610da08383610d85565b60208301905092915050565b6000602082019050919050565b6000610dc482610d4f565b610dce8185610d5a565b9350610dd983610d6b565b8060005b83811015610e0a578151610df18882610d94565b9750610dfc83610dac565b925050600181019050610ddd565b5085935050505092915050565b60006020820190508181036000830152610e318184610db9565b905092915050565b610e4281610d7b565b8114610e4d57600080fd5b50565b600081359050610e5f81610e39565b92915050565b600060208284031215610e7b57610e7a610cbf565b5b6000610e8984828501610e50565b91505092915050565b610e9b81610ce4565b82525050565b60a082016000820151610eb76000850182610d85565b506020820151610eca6020850182610e92565b506040820151610edd6040850182610e92565b506060820151610ef06060850182610d85565b506080820151610f036080850182610d85565b50505050565b600060a082019050610f1e6000830184610ea1565b92915050565b60008060408385031215610f3b57610f3a610cbf565b5b6000610f4985828601610d0d565b9250506020610f5a85828601610e50565b9150509250929050565b600081519050919050565b600082825260208201905092915050565b6000819050602082019050919050565b60a082016000820151610fa66000850182610d85565b506020820151610fb96020850182610e92565b506040820151610fcc6040850182610e92565b506060820151610fdf6060850182610d85565b506080820151610ff26080850182610d85565b50505050565b60006110048383610f90565b60a08301905092915050565b6000602082019050919050565b600061102882610f64565b6110328185610f6f565b935061103d83610f80565b8060005b8381101561106e5781516110558882610ff8565b975061106083611010565b925050600181019050611041565b5085935050505092915050565b60006020820190508181036000830152611095818461101d565b905092915050565b6110a681610d7b565b82525050565b60006020820190506110c1600083018461109d565b92915050565b600082825260208201905092915050565b7f4e6f2066756e647320617661696c61626c6520666f722077697468647261776160008201527f6c00000000000000000000000000000000000000000000000000000000000000602082015250565b60006111346021836110c7565b915061113f826110d8565b604082019050919050565b6000602082019050818103600083015261116381611127565b9050919050565b7f596f75206d7573742065697468657220626520746865206465706f7369746f7260008201527f206f72207468652062656e656669636961727920746f2077697468647261772060208201527f66756e6473000000000000000000000000000000000000000000000000000000604082015250565b60006111ec6045836110c7565b91506111f78261116a565b606082019050919050565b6000602082019050818103600083015261121b816111df565b9050919050565b7f5769746864726177616c206461746520686173206e6f7420796574207061737360008201527f6564000000000000000000000000000000000000000000000000000000000000602082015250565b600061127e6022836110c7565b915061128982611222565b604082019050919050565b600060208201905081810360008301526112ad81611271565b9050919050565b60006040820190506112c9600083018561109d565b6112d6602083018461109d565b9392505050565b7f596f75206d757374206265207468652062656e6566696369617279206f72207460008201527f6865206465706f7369746f7220746f207365652074686573652066756e647300602082015250565b6000611339603f836110c7565b9150611344826112dd565b604082019050919050565b600060208201905081810360008301526113688161132c565b9050919050565b7f496e76616c69642062656e656669636961727920616464726573730000000000600082015250565b60006113a5601b836110c7565b91506113b08261136f565b602082019050919050565b600060208201905081810360008301526113d481611398565b9050919050565b7f5769746864726177616c2064617465206d75737420626520696e20746865206660008201527f7574757265000000000000000000000000000000000000000000000000000000602082015250565b60006114376025836110c7565b9150611442826113db565b604082019050919050565b600060208201905081810360008301526114668161142a565b9050919050565b7f416d6f756e74206d7573742062652067726561746572207468616e207a65726f600082015250565b60006114a36020836110c7565b91506114ae8261146d565b602082019050919050565b600060208201905081810360008301526114d281611496565b9050919050565b7f4e487b7100000000000000000000000000000000000000000000000000000000600052601160045260246000fd5b600061151382610d7b565b91507fffffffffffffffffffffffffffffffffffffffffffffffffffffffffffffffff8203611545576115446114d9565b5b600182019050919050565b6000606082019050611565600083018661109d565b611572602083018561109d565b61157f604083018461109d565b949350505050565b7f4e487b7100000000000000000000000000000000000000000000000000000000600052604160045260246000fd5b7f4e487b7100000000000000000000000000000000000000000000000000000000600052603260045260246000fdfea264697066735822122009bf2a2ae392f5d34acaecd98dcbbda719118607058d5d93f60648d160c5683464736f6c63430008180033",
  "linkReferences": {},
  "deployedLinkReferences": {}
}